{
  "_format": "hh-sol-artifact-1",
  "contractName": "Lottery",
  "sourceName": "contracts/Lottery.sol",
  "abi": [
    {
      "inputs": [],
      "stateMutability": "nonpayable",
      "type": "constructor"
    },
    {
      "inputs": [],
      "name": "allPlayers",
      "outputs": [
        {
          "internalType": "address payable[]",
          "name": "",
          "type": "address[]"
        }
      ],
      "stateMutability": "view",
      "type": "function"
    },
    {
      "inputs": [],
      "name": "getBalance",
      "outputs": [
        {
          "internalType": "uint256",
          "name": "",
          "type": "uint256"
        }
      ],
      "stateMutability": "view",
      "type": "function"
    },
    {
      "inputs": [],
      "name": "pickWinner",
      "outputs": [],
      "stateMutability": "nonpayable",
      "type": "function"
    },
    {
      "inputs": [
        {
          "internalType": "uint256",
          "name": "",
          "type": "uint256"
        }
      ],
      "name": "players",
      "outputs": [
        {
          "internalType": "address payable",
          "name": "",
          "type": "address"
        }
      ],
      "stateMutability": "view",
      "type": "function"
    },
    {
      "inputs": [],
      "name": "winner",
      "outputs": [
        {
          "internalType": "address payable",
          "name": "",
          "type": "address"
        }
      ],
      "stateMutability": "view",
      "type": "function"
    },
    {
      "stateMutability": "payable",
      "type": "receive"
    }
  ],
  "bytecode": "0x608060405234801561001057600080fd5b5033600160006101000a81548173ffffffffffffffffffffffffffffffffffffffff021916908373ffffffffffffffffffffffffffffffffffffffff160217905550610b5a806100616000396000f3fe60806040526004361061004e5760003560e01c806312065fe0146101065780635d495aea14610131578063b0ec809414610148578063dfbf53ae14610173578063f71d96cb1461019e57610101565b366101015766038d7ea4c68000341461009c576040517f08c379a000000000000000000000000000000000000000000000000000000000815260040161009390610717565b60405180910390fd5b6000339080600181540180825580915050600190039060005260206000200160009091909190916101000a81548173ffffffffffffffffffffffffffffffffffffffff021916908373ffffffffffffffffffffffffffffffffffffffff160217905550005b600080fd5b34801561011257600080fd5b5061011b6101db565b6040516101289190610750565b60405180910390f35b34801561013d57600080fd5b50610146610273565b005b34801561015457600080fd5b5061015d6104bf565b60405161016a919061085b565b60405180910390f35b34801561017f57600080fd5b5061018861054d565b604051610195919061088c565b60405180910390f35b3480156101aa57600080fd5b506101c560048036038101906101c091906108d8565b610573565b6040516101d2919061088c565b60405180910390f35b60003373ffffffffffffffffffffffffffffffffffffffff16600160009054906101000a900473ffffffffffffffffffffffffffffffffffffffff1673ffffffffffffffffffffffffffffffffffffffff161461026d576040517f08c379a000000000000000000000000000000000000000000000000000000000815260040161026490610951565b60405180910390fd5b47905090565b600160009054906101000a900473ffffffffffffffffffffffffffffffffffffffff1673ffffffffffffffffffffffffffffffffffffffff163373ffffffffffffffffffffffffffffffffffffffff1614610303576040517f08c379a00000000000000000000000000000000000000000000000000000000081526004016102fa90610951565b60405180910390fd5b6003600080549050101561034c576040517f08c379a0000000000000000000000000000000000000000000000000000000008152600401610343906109bd565b60405180910390fd5b60006103566105b2565b9050600080805490508261036a9190610a0c565b9050600081815481106103805761037f610a3d565b5b9060005260206000200160009054906101000a900473ffffffffffffffffffffffffffffffffffffffff16600260006101000a81548173ffffffffffffffffffffffffffffffffffffffff021916908373ffffffffffffffffffffffffffffffffffffffff160217905550600260009054906101000a900473ffffffffffffffffffffffffffffffffffffffff1673ffffffffffffffffffffffffffffffffffffffff166108fc61042f6101db565b9081150290604051600060405180830381858888f1935050505015801561045a573d6000803e3d6000fd5b50600067ffffffffffffffff81111561047657610475610a6c565b5b6040519080825280602002602001820160405280156104a45781602001602082028036833780820191505090505b50600090805190602001906104ba9291906105ed565b505050565b6060600080548060200260200160405190810160405280929190818152602001828054801561054357602002820191906000526020600020905b8160009054906101000a900473ffffffffffffffffffffffffffffffffffffffff1673ffffffffffffffffffffffffffffffffffffffff16815260200190600101908083116104f9575b5050505050905090565b600260009054906101000a900473ffffffffffffffffffffffffffffffffffffffff1681565b6000818154811061058357600080fd5b906000526020600020016000915054906101000a900473ffffffffffffffffffffffffffffffffffffffff1681565b60004340426000805490506040516020016105cf93929190610ae7565b6040516020818303038152906040528051906020012060001c905090565b828054828255906000526020600020908101928215610666579160200282015b828111156106655782518260006101000a81548173ffffffffffffffffffffffffffffffffffffffff021916908373ffffffffffffffffffffffffffffffffffffffff1602179055509160200191906001019061060d565b5b5090506106739190610677565b5090565b5b80821115610690576000816000905550600101610678565b5090565b600082825260208201905092915050565b7f506c656173652070617920302e30303120657468657220746f2070617274696360008201527f6970617465000000000000000000000000000000000000000000000000000000602082015250565b6000610701602583610694565b915061070c826106a5565b604082019050919050565b60006020820190508181036000830152610730816106f4565b9050919050565b6000819050919050565b61074a81610737565b82525050565b60006020820190506107656000830184610741565b92915050565b600081519050919050565b600082825260208201905092915050565b6000819050602082019050919050565b600073ffffffffffffffffffffffffffffffffffffffff82169050919050565b60006107c282610797565b9050919050565b6107d2816107b7565b82525050565b60006107e483836107c9565b60208301905092915050565b6000602082019050919050565b60006108088261076b565b6108128185610776565b935061081d83610787565b8060005b8381101561084e57815161083588826107d8565b9750610840836107f0565b925050600181019050610821565b5085935050505092915050565b6000602082019050818103600083015261087581846107fd565b905092915050565b610886816107b7565b82525050565b60006020820190506108a1600083018461087d565b92915050565b600080fd5b6108b581610737565b81146108c057600080fd5b50565b6000813590506108d2816108ac565b92915050565b6000602082840312156108ee576108ed6108a7565b5b60006108fc848285016108c3565b91505092915050565b7f596f7520617265206e6f7420746865206d616e61676572000000000000000000600082015250565b600061093b601783610694565b915061094682610905565b602082019050919050565b6000602082019050818103600083015261096a8161092e565b9050919050565b7f506c617965727320617265206c657373207468616e2033000000000000000000600082015250565b60006109a7601783610694565b91506109b282610971565b602082019050919050565b600060208201905081810360008301526109d68161099a565b9050919050565b7f4e487b7100000000000000000000000000000000000000000000000000000000600052601260045260246000fd5b6000610a1782610737565b9150610a2283610737565b925082610a3257610a316109dd565b5b828206905092915050565b7f4e487b7100000000000000000000000000000000000000000000000000000000600052603260045260246000fd5b7f4e487b7100000000000000000000000000000000000000000000000000000000600052604160045260246000fd5b6000819050919050565b6000819050919050565b610ac0610abb82610a9b565b610aa5565b82525050565b6000819050919050565b610ae1610adc82610737565b610ac6565b82525050565b6000610af38286610aaf565b602082019150610b038285610ad0565b602082019150610b138284610ad0565b60208201915081905094935050505056fea264697066735822122061320a00da9ea85338025613721278ec922a2f00db7492f10962609495a6621164736f6c634300080b0033",
  "linkReferences": {},
  "deployedLinkReferences": {}
}